{
  "contractName": "Splitter",
  "abi": [
    {
      "constant": false,
      "inputs": [
        {
          "name": "_addr1",
          "type": "address"
        },
        {
          "name": "_addr2",
          "type": "address"
        },
        {
          "name": "_amount",
          "type": "uint256"
        }
      ],
      "name": "split",
      "outputs": [],
      "payable": true,
      "stateMutability": "payable",
      "type": "function"
    },
    {
      "constant": false,
      "inputs": [],
      "name": "withdraw",
      "outputs": [
        {
          "name": "tokent",
          "type": "uint256"
        }
      ],
      "payable": false,
      "stateMutability": "nonpayable",
      "type": "function"
    }
  ],
  "bytecode": "0x6060604052341561000f57600080fd5b6102cc8061001e6000396000f30060606040526004361061004c576000357c0100000000000000000000000000000000000000000000000000000000900463ffffffff1680633313be4e146100515780633ccfd60b146100a7575b600080fd5b6100a5600480803573ffffffffffffffffffffffffffffffffffffffff1690602001909190803573ffffffffffffffffffffffffffffffffffffffff169060200190919080359060200190919050506100d0565b005b34156100b257600080fd5b6100ba61018d565b6040518082815260200191505060405180910390f35b600080821115156100e057600080fd5b6002828115156100ec57fe5b049050806000808673ffffffffffffffffffffffffffffffffffffffff1673ffffffffffffffffffffffffffffffffffffffff16815260200190815260200160002060008282540192505081905550806000808573ffffffffffffffffffffffffffffffffffffffff1673ffffffffffffffffffffffffffffffffffffffff1681526020019081526020016000206000828254019250508190555050505050565b60008060003391506000808373ffffffffffffffffffffffffffffffffffffffff1673ffffffffffffffffffffffffffffffffffffffff16815260200190815260200160002054905060008060008473ffffffffffffffffffffffffffffffffffffffff1673ffffffffffffffffffffffffffffffffffffffff168152602001908152602001600020819055508173ffffffffffffffffffffffffffffffffffffffff166108fc829081150290604051600060405180830381858888f19350505050151561025a57600080fd5b6000803373ffffffffffffffffffffffffffffffffffffffff1673ffffffffffffffffffffffffffffffffffffffff1681526020019081526020016000205492505050905600a165627a7a723058207a9b82b49b6bf4171de689bc1704cfd71abdf5c3e8b3e7b1359459458d247af60029",
  "source": "pragma solidity ^0.4.19;\r\n\r\ncontract Splitter {\r\n\r\n\tmapping (address => uint) private participants;\t\r\n\r\n\tfunction split(address _addr1, address _addr2, uint _amount) public payable {\r\n\t\trequire(_amount > 0);\r\n        uint amountPerAddr = _amount / 2;\r\n\t\tparticipants[_addr1] += amountPerAddr;\r\n\t\tparticipants[_addr2] += amountPerAddr;\r\n\t}\r\n\r\n\tfunction withdraw() public returns(uint tokent) {\r\n\t\taddress sender = msg.sender;\r\n\t\tuint amount = participants[sender];\r\n\t\tparticipants[sender] = 0;\r\n\t\tsender.transfer(amount);\r\n\t\treturn participants[msg.sender];\t\t\r\n\t}\r\n}",
  "sourcePath": "C:\\Users\\Acer\\Desktop\\Splitter\\contracts\\Splitter.sol",
  "compiler": {
    "name": "solc",
    "version": "0.4.19+commit.c4cbbb05.Emscripten.clang"
  },
  "schemaVersion": "1.0.1",
  "updatedAt": "2018-03-07T14:22:31.976Z"
}