{
  "contractName": "Splitter",
  "abi": [
    {
      "constant": true,
      "inputs": [],
      "name": "owner",
      "outputs": [
        {
          "name": "",
          "type": "address"
        }
      ],
      "payable": false,
      "stateMutability": "view",
      "type": "function"
    },
    {
      "inputs": [],
      "payable": false,
      "stateMutability": "nonpayable",
      "type": "constructor"
    },
    {
      "constant": false,
      "inputs": [
        {
          "name": "_addr1",
          "type": "address"
        },
        {
          "name": "_addr2",
          "type": "address"
        }
      ],
      "name": "split",
      "outputs": [],
      "payable": true,
      "stateMutability": "payable",
      "type": "function"
    },
    {
      "constant": false,
      "inputs": [],
      "name": "kill",
      "outputs": [
        {
          "name": "",
          "type": "bool"
        }
      ],
      "payable": false,
      "stateMutability": "nonpayable",
      "type": "function"
    }
  ],
  "bytecode": "0x6060604052341561000f57600080fd5b336000806101000a81548173ffffffffffffffffffffffffffffffffffffffff021916908373ffffffffffffffffffffffffffffffffffffffff16021790555061039c8061005e6000396000f300606060405260043610610057576000357c0100000000000000000000000000000000000000000000000000000000900463ffffffff1680630f2c93291461005c57806341c0e1b5146100a95780638da5cb5b146100d6575b600080fd5b6100a7600480803573ffffffffffffffffffffffffffffffffffffffff1690602001909190803573ffffffffffffffffffffffffffffffffffffffff1690602001909190505061012b565b005b34156100b457600080fd5b6100bc6102d5565b604051808215151515815260200191505060405180910390f35b34156100e157600080fd5b6100e961034b565b604051808273ffffffffffffffffffffffffffffffffffffffff1673ffffffffffffffffffffffffffffffffffffffff16815260200191505060405180910390f35b60008282600073ffffffffffffffffffffffffffffffffffffffff168273ffffffffffffffffffffffffffffffffffffffff161415151561016b57600080fd5b600073ffffffffffffffffffffffffffffffffffffffff168173ffffffffffffffffffffffffffffffffffffffff16141515156101a757600080fd5b343373ffffffffffffffffffffffffffffffffffffffff16311115156101cc57600080fd5b8473ffffffffffffffffffffffffffffffffffffffff163373ffffffffffffffffffffffffffffffffffffffff161415801561023457508373ffffffffffffffffffffffffffffffffffffffff163373ffffffffffffffffffffffffffffffffffffffff1614155b151561023f57600080fd5b60023481151561024b57fe5b0492508473ffffffffffffffffffffffffffffffffffffffff166108fc849081150290604051600060405180830381858888f19350505050151561028e57600080fd5b8373ffffffffffffffffffffffffffffffffffffffff166108fc849081150290604051600060405180830381858888f1935050505015156102ce57600080fd5b5050505050565b60003373ffffffffffffffffffffffffffffffffffffffff166000809054906101000a900473ffffffffffffffffffffffffffffffffffffffff1673ffffffffffffffffffffffffffffffffffffffff1614151561033257600080fd5b3073ffffffffffffffffffffffffffffffffffffffff16ff5b6000809054906101000a900473ffffffffffffffffffffffffffffffffffffffff16815600a165627a7a723058209287fe3d5b58bca950a62465794d79b5b95a395c03129a000673a25a2406cd090029",
  "source": "pragma solidity ^0.4.19;\r\n\r\ncontract Splitter {\r\n    \r\n    address public owner;\r\n    \r\n    function Splitter() public{\r\n        owner = msg.sender;\r\n    }\r\n\r\n\tmodifier isAddressValid(address _addr1, address _addr2) { \r\n\t\trequire(_addr1 != 0x0000000000000000000000000000000000000000); \r\n\t\trequire(_addr2 != 0x0000000000000000000000000000000000000000); \r\n\t\t_; \r\n\t}\r\n\r\n\tfunction split(address _addr1, address _addr2) public payable isAddressValid(_addr1, _addr2) {\r\n\t\trequire(msg.sender.balance > msg.value);\r\n\t\trequire(msg.sender != _addr1 && msg.sender != _addr2);\r\n        uint amount = msg.value / 2;\r\n\t\t_addr1.transfer(amount);\r\n\t\t_addr2.transfer(amount);\r\n\t}\r\n\t\r\n\tfunction kill() public returns(bool){\r\n\t    require(owner == msg.sender);\r\n\t    selfdestruct(this);\r\n\t    return true;\r\n\t}\r\n}",
  "sourcePath": "D:\\DAPPS\\Projects\\Splitter\\contracts\\Splitter.sol",
  "compiler": {
    "name": "solc",
    "version": "0.4.19+commit.c4cbbb05.Emscripten.clang"
  },
  "schemaVersion": "1.0.1",
  "updatedAt": "2018-03-08T14:25:12.873Z"
}