{
  "contractName": "Splitter",
  "abi": [
    {
      "inputs": [],
      "payable": false,
      "stateMutability": "nonpayable",
      "type": "constructor"
    },
    {
      "constant": false,
      "inputs": [
        {
          "name": "_addr1",
          "type": "address"
        },
        {
          "name": "_addr2",
          "type": "address"
        }
      ],
      "name": "split",
      "outputs": [],
      "payable": true,
      "stateMutability": "payable",
      "type": "function"
    },
    {
      "constant": false,
      "inputs": [],
      "name": "kill",
      "outputs": [],
      "payable": false,
      "stateMutability": "nonpayable",
      "type": "function"
    }
  ],
  "bytecode": "0x6060604052341561000f57600080fd5b336000806101000a81548173ffffffffffffffffffffffffffffffffffffffff021916908373ffffffffffffffffffffffffffffffffffffffff16021790555061028a8061005e6000396000f30060606040526004361061004c576000357c0100000000000000000000000000000000000000000000000000000000900463ffffffff1680630f2c93291461005157806341c0e1b51461009e575b600080fd5b61009c600480803573ffffffffffffffffffffffffffffffffffffffff1690602001909190803573ffffffffffffffffffffffffffffffffffffffff169060200190919050506100b3565b005b34156100a957600080fd5b6100b16101ea565b005b60008282600073ffffffffffffffffffffffffffffffffffffffff168273ffffffffffffffffffffffffffffffffffffffff16141515156100f357600080fd5b600073ffffffffffffffffffffffffffffffffffffffff168173ffffffffffffffffffffffffffffffffffffffff161415151561012f57600080fd5b343373ffffffffffffffffffffffffffffffffffffffff163111151561015457600080fd5b60023481151561016057fe5b0492508473ffffffffffffffffffffffffffffffffffffffff166108fc849081150290604051600060405180830381858888f1935050505015156101a357600080fd5b8373ffffffffffffffffffffffffffffffffffffffff166108fc849081150290604051600060405180830381858888f1935050505015156101e357600080fd5b5050505050565b3373ffffffffffffffffffffffffffffffffffffffff166000809054906101000a900473ffffffffffffffffffffffffffffffffffffffff1673ffffffffffffffffffffffffffffffffffffffff1614151561024557600080fd5b3073ffffffffffffffffffffffffffffffffffffffff16ff00a165627a7a72305820c39ac06c49f6abc52e03525cdb954972d563753fd586ba59a232dcd6eab8162f0029",
  "source": "pragma solidity ^0.4.19;\r\n\r\ncontract Splitter {\r\n    \r\n    address owner;\r\n    \r\n    function Splitter() public{\r\n        owner = msg.sender;\r\n    }\r\n\r\n\tmodifier isAddressValid(address _addr1, address _addr2) { \r\n\t\trequire(_addr1 != 0x0000000000000000000000000000000000000000); \r\n\t\trequire(_addr2 != 0x0000000000000000000000000000000000000000); \r\n\t\t_; \r\n\t}\r\n\r\n\tfunction split(address _addr1, address _addr2) public payable isAddressValid(_addr1, _addr2){\r\n\t\trequire(msg.sender.balance > msg.value);\r\n        uint amount = msg.value / 2;\r\n\t\t_addr1.transfer(amount);\r\n\t\t_addr2.transfer(amount);\r\n\t}\r\n\t\r\n\tfunction kill() public {\r\n\t    require(owner == msg.sender);\r\n\t    selfdestruct(this);\r\n\t}\r\n}",
  "sourcePath": "D:\\DAPPS\\Projects\\Splitter\\contracts\\Splitter.sol",
  "compiler": {
    "name": "solc",
    "version": "0.4.19+commit.c4cbbb05.Emscripten.clang"
  },
  "schemaVersion": "1.0.1",
  "updatedAt": "2018-03-07T22:35:13.143Z"
}