{
  "contractName": "Splitter",
  "abi": [
    {
      "constant": true,
      "inputs": [
        {
          "name": "",
          "type": "address"
        }
      ],
      "name": "balances",
      "outputs": [
        {
          "name": "",
          "type": "uint256"
        }
      ],
      "payable": false,
      "stateMutability": "view",
      "type": "function"
    },
    {
      "constant": true,
      "inputs": [],
      "name": "owner",
      "outputs": [
        {
          "name": "",
          "type": "address"
        }
      ],
      "payable": false,
      "stateMutability": "view",
      "type": "function"
    },
    {
      "inputs": [],
      "payable": false,
      "stateMutability": "nonpayable",
      "type": "constructor"
    },
    {
      "anonymous": false,
      "inputs": [
        {
          "indexed": false,
          "name": "victim",
          "type": "address"
        }
      ],
      "name": "Killed",
      "type": "event"
    },
    {
      "constant": false,
      "inputs": [
        {
          "name": "_addr1",
          "type": "address"
        },
        {
          "name": "_addr2",
          "type": "address"
        }
      ],
      "name": "split",
      "outputs": [],
      "payable": true,
      "stateMutability": "payable",
      "type": "function"
    },
    {
      "constant": false,
      "inputs": [],
      "name": "withDraw",
      "outputs": [],
      "payable": false,
      "stateMutability": "nonpayable",
      "type": "function"
    },
    {
      "constant": false,
      "inputs": [],
      "name": "kill",
      "outputs": [],
      "payable": false,
      "stateMutability": "nonpayable",
      "type": "function"
    }
  ],
  "bytecode": "0x6060604052341561000f57600080fd5b336000806101000a81548173ffffffffffffffffffffffffffffffffffffffff021916908373ffffffffffffffffffffffffffffffffffffffff16021790555061060b8061005e6000396000f30060606040526004361061006d576000357c0100000000000000000000000000000000000000000000000000000000900463ffffffff1680630f2c9329146100725780630fdb1c10146100bf57806327e235e3146100d457806341c0e1b5146101215780638da5cb5b14610136575b600080fd5b6100bd600480803573ffffffffffffffffffffffffffffffffffffffff1690602001909190803573ffffffffffffffffffffffffffffffffffffffff1690602001909190505061018b565b005b34156100ca57600080fd5b6100d2610453565b005b34156100df57600080fd5b61010b600480803573ffffffffffffffffffffffffffffffffffffffff1690602001909190505061052e565b6040518082815260200191505060405180910390f35b341561012c57600080fd5b610134610546565b005b341561014157600080fd5b6101496105ba565b604051808273ffffffffffffffffffffffffffffffffffffffff1673ffffffffffffffffffffffffffffffffffffffff16815260200191505060405180910390f35b600082600073ffffffffffffffffffffffffffffffffffffffff168173ffffffffffffffffffffffffffffffffffffffff16141515156101ca57600080fd5b82600073ffffffffffffffffffffffffffffffffffffffff168173ffffffffffffffffffffffffffffffffffffffff161415151561020757600080fd5b6000809054906101000a900473ffffffffffffffffffffffffffffffffffffffff1673ffffffffffffffffffffffffffffffffffffffff163373ffffffffffffffffffffffffffffffffffffffff1614151561026257600080fd5b60003411151561027157600080fd5b8473ffffffffffffffffffffffffffffffffffffffff166000809054906101000a900473ffffffffffffffffffffffffffffffffffffffff1673ffffffffffffffffffffffffffffffffffffffff161415801561031b57508373ffffffffffffffffffffffffffffffffffffffff166000809054906101000a900473ffffffffffffffffffffffffffffffffffffffff1673ffffffffffffffffffffffffffffffffffffffff1614155b151561032657600080fd5b34925060028381151561033557fe5b06600160008060009054906101000a900473ffffffffffffffffffffffffffffffffffffffff1673ffffffffffffffffffffffffffffffffffffffff1673ffffffffffffffffffffffffffffffffffffffff168152602001908152602001600020600082825401925050819055506002838115156103af57fe5b04925082600160008773ffffffffffffffffffffffffffffffffffffffff1673ffffffffffffffffffffffffffffffffffffffff1681526020019081526020016000206000828254019250508190555082600160008673ffffffffffffffffffffffffffffffffffffffff1673ffffffffffffffffffffffffffffffffffffffff168152602001908152602001600020600082825401925050819055505050505050565b6000600160003373ffffffffffffffffffffffffffffffffffffffff1673ffffffffffffffffffffffffffffffffffffffff1681526020019081526020016000205490506000811115156104a657600080fd5b6000600160003373ffffffffffffffffffffffffffffffffffffffff1673ffffffffffffffffffffffffffffffffffffffff168152602001908152602001600020819055503373ffffffffffffffffffffffffffffffffffffffff166108fc829081150290604051600060405180830381858888f19350505050151561052b57600080fd5b50565b60016020528060005260406000206000915090505481565b6000809054906101000a900473ffffffffffffffffffffffffffffffffffffffff1673ffffffffffffffffffffffffffffffffffffffff163373ffffffffffffffffffffffffffffffffffffffff161415156105a157600080fd5b3073ffffffffffffffffffffffffffffffffffffffff16ff5b6000809054906101000a900473ffffffffffffffffffffffffffffffffffffffff16815600a165627a7a72305820355db49f3fc502ecc4d5b2d11eecac08605ac928e033fee51a650dfcbee5583b0029",
  "source": "pragma solidity ^0.4.19;\r\n\r\ncontract Splitter {\r\n    \r\n    address public owner;\r\n\r\n    // Balances for each account\r\n    mapping (address => uint) public balances;    \r\n    \r\n    event Killed(address victim);\r\n    \r\n\r\n    function Splitter() public{\r\n        owner = msg.sender;\r\n    }\r\n\r\n    // Check is the address valid\r\n\tmodifier onlyAddressValid(address _addr) { \r\n\t\trequire(_addr != address(0)); \r\n\t\t_; \r\n\t}\r\n\r\n\t// Check if the function is called by owner\r\n\tmodifier onlyOwner() { \r\n\t\trequire(msg.sender == owner); \r\n\t\t_; \r\n\t}\r\n\t\r\n\r\n\t// Recieves funds from owner and split them between two address \r\n\tfunction split(address _addr1, address _addr2) public payable \r\n\t\tonlyAddressValid(_addr1) \r\n\t\tonlyAddressValid(_addr2)\r\n\t\tonlyOwner() {\r\n\r\n\t\trequire(msg.value > 0);\r\n\t\trequire(owner != _addr1 && owner != _addr2);\r\n\r\n\t\tuint amount = msg.value;\r\n\t\tbalances[owner] += amount % 2;\r\n        amount /= 2;\r\n\r\n        balances[_addr1] += amount;\r\n        balances[_addr2] += amount;\t\t\r\n\t}\r\n\r\n\t// Recipients withDraw their coins\r\n\tfunction withDraw() public {\r\n\t\t\r\n\t\tuint amountToWithDraw = balances[msg.sender];\r\n\t\trequire(amountToWithDraw > 0);\r\n\t\tbalances[msg.sender] = 0;\t\t\r\n\t\tmsg.sender.transfer(amountToWithDraw);\t\t\r\n\t}\r\n\t\r\n\t// Removes the owner\r\n\tfunction kill() public onlyOwner(){\r\n\t    selfdestruct(this);\r\n\t    Killed(msg.sender);\r\n\t}\r\n}",
  "sourcePath": "D:\\DAPPS\\Projects\\Splitter\\contracts\\Splitter.sol",
  "compiler": {
    "name": "solc",
    "version": "0.4.19+commit.c4cbbb05.Emscripten.clang"
  },
  "schemaVersion": "1.0.1",
  "updatedAt": "2018-03-09T11:08:41.220Z"
}