{
  "contractName": "Splitter",
  "abi": [
    {
      "constant": true,
      "inputs": [
        {
          "name": "",
          "type": "address"
        }
      ],
      "name": "participants",
      "outputs": [
        {
          "name": "",
          "type": "uint256"
        }
      ],
      "payable": false,
      "stateMutability": "view",
      "type": "function"
    },
    {
      "constant": true,
      "inputs": [],
      "name": "owner",
      "outputs": [
        {
          "name": "",
          "type": "address"
        }
      ],
      "payable": false,
      "stateMutability": "view",
      "type": "function"
    },
    {
      "inputs": [],
      "payable": false,
      "stateMutability": "nonpayable",
      "type": "constructor"
    },
    {
      "constant": false,
      "inputs": [
        {
          "name": "_addr1",
          "type": "address"
        },
        {
          "name": "_addr2",
          "type": "address"
        }
      ],
      "name": "split",
      "outputs": [],
      "payable": true,
      "stateMutability": "payable",
      "type": "function"
    },
    {
      "constant": false,
      "inputs": [],
      "name": "withDraw",
      "outputs": [],
      "payable": false,
      "stateMutability": "nonpayable",
      "type": "function"
    },
    {
      "constant": false,
      "inputs": [],
      "name": "kill",
      "outputs": [],
      "payable": false,
      "stateMutability": "nonpayable",
      "type": "function"
    }
  ],
  "bytecode": "0x6060604052341561000f57600080fd5b336000806101000a81548173ffffffffffffffffffffffffffffffffffffffff021916908373ffffffffffffffffffffffffffffffffffffffff16021790555061061b8061005e6000396000f30060606040526004361061006d576000357c0100000000000000000000000000000000000000000000000000000000900463ffffffff16806309e69ede146100725780630f2c9329146100bf5780630fdb1c101461010c57806341c0e1b5146101215780638da5cb5b14610136575b600080fd5b341561007d57600080fd5b6100a9600480803573ffffffffffffffffffffffffffffffffffffffff1690602001909190505061018b565b6040518082815260200191505060405180910390f35b61010a600480803573ffffffffffffffffffffffffffffffffffffffff1690602001909190803573ffffffffffffffffffffffffffffffffffffffff169060200190919050506101a3565b005b341561011757600080fd5b61011f61047b565b005b341561012c57600080fd5b610134610556565b005b341561014157600080fd5b6101496105ca565b604051808273ffffffffffffffffffffffffffffffffffffffff1673ffffffffffffffffffffffffffffffffffffffff16815260200191505060405180910390f35b60016020528060005260406000206000915090505481565b600082600073ffffffffffffffffffffffffffffffffffffffff168173ffffffffffffffffffffffffffffffffffffffff16141515156101e257600080fd5b82600073ffffffffffffffffffffffffffffffffffffffff168173ffffffffffffffffffffffffffffffffffffffff161415151561021f57600080fd5b6000809054906101000a900473ffffffffffffffffffffffffffffffffffffffff1673ffffffffffffffffffffffffffffffffffffffff163373ffffffffffffffffffffffffffffffffffffffff1614151561027a57600080fd5b60003411151561028957600080fd5b8473ffffffffffffffffffffffffffffffffffffffff166000809054906101000a900473ffffffffffffffffffffffffffffffffffffffff1673ffffffffffffffffffffffffffffffffffffffff161415801561033357508373ffffffffffffffffffffffffffffffffffffffff166000809054906101000a900473ffffffffffffffffffffffffffffffffffffffff1673ffffffffffffffffffffffffffffffffffffffff1614155b151561033e57600080fd5b349250600160028481151561034f57fe5b0614156103cb5760018303925060018060008060009054906101000a900473ffffffffffffffffffffffffffffffffffffffff1673ffffffffffffffffffffffffffffffffffffffff1673ffffffffffffffffffffffffffffffffffffffff168152602001908152602001600020600082825401925050819055505b6002838115156103d757fe5b04925082600160008773ffffffffffffffffffffffffffffffffffffffff1673ffffffffffffffffffffffffffffffffffffffff1681526020019081526020016000206000828254019250508190555082600160008673ffffffffffffffffffffffffffffffffffffffff1673ffffffffffffffffffffffffffffffffffffffff168152602001908152602001600020600082825401925050819055505050505050565b6000600160003373ffffffffffffffffffffffffffffffffffffffff1673ffffffffffffffffffffffffffffffffffffffff1681526020019081526020016000205490506000811115156104ce57600080fd5b6000600160003373ffffffffffffffffffffffffffffffffffffffff1673ffffffffffffffffffffffffffffffffffffffff168152602001908152602001600020819055503373ffffffffffffffffffffffffffffffffffffffff166108fc829081150290604051600060405180830381858888f19350505050151561055357600080fd5b50565b6000809054906101000a900473ffffffffffffffffffffffffffffffffffffffff1673ffffffffffffffffffffffffffffffffffffffff163373ffffffffffffffffffffffffffffffffffffffff161415156105b157600080fd5b3073ffffffffffffffffffffffffffffffffffffffff16ff5b6000809054906101000a900473ffffffffffffffffffffffffffffffffffffffff16815600a165627a7a7230582060cc05403edebeed6bd23245fb32f20b539a2a574cc31bfb840042191b090e600029",
  "source": "pragma solidity ^0.4.19;\r\n\r\ncontract Splitter {\r\n    \r\n    address public owner;\r\n    mapping (address => uint) public participants;    \r\n    \r\n    function Splitter() public{\r\n        owner = msg.sender;\r\n    }\r\n\r\n\tmodifier onlyAddressValid(address _addr) { \r\n\t\trequire(_addr != address(0)); \r\n\t\t_; \r\n\t}\r\n\r\n\tmodifier onlyOwner() { \r\n\t\trequire(msg.sender == owner); \r\n\t\t_; \r\n\t}\r\n\t\r\n\r\n\tfunction split(address _addr1, address _addr2) public payable \r\n\t\tonlyAddressValid(_addr1) \r\n\t\tonlyAddressValid(_addr2)\r\n\t\tonlyOwner() {\r\n\r\n\t\trequire(msg.value > 0);\r\n\t\trequire(owner != _addr1 && owner != _addr2);\r\n\r\n\t\tuint amount = msg.value;\r\n\r\n\t\tif(amount % 2 == 1) {\r\n\t\t\tamount -= 1;\r\n\t\t\tparticipants[owner] += 1;\r\n\t\t}\r\n\r\n        amount /= 2;\r\n\r\n        participants[_addr1] += amount;\r\n        participants[_addr2] += amount;\t\t\r\n\t}\r\n\r\n\tfunction withDraw() public {\r\n\t\t\r\n\t\tuint amountToWithDraw = participants[msg.sender];\r\n\t\trequire(amountToWithDraw > 0);\r\n\t\tparticipants[msg.sender] = 0;\t\t\r\n\t\tmsg.sender.transfer(amountToWithDraw);\t\t\r\n\t}\r\n\t\r\n\t\r\n\tfunction kill() public onlyOwner(){\r\n\t    selfdestruct(this);\r\n\t}\r\n}",
  "sourcePath": "D:\\DAPPS\\Projects\\Splitter\\contracts\\Splitter.sol",
  "compiler": {
    "name": "solc",
    "version": "0.4.19+commit.c4cbbb05.Emscripten.clang"
  },
  "schemaVersion": "1.0.1",
  "updatedAt": "2018-03-09T09:41:47.017Z"
}